:2000000029CF1895189518951895189518953BCF47CF1895189518951895189518951895FF
:200020001895189518950000000000000000000000000000000000000000000000000000B9
:20004000201F12030000302F2113050400003D3122151406000033322423160700000034F4
:20006000251708090000352618190B0A0000363727281A0C00000029001B0D00001E392BDD
:200080001C001D0000002D000000000F00005D005C5B0000006368626166606E5A7A6A6770
:2000A0006964657D000000007600003A00370000003B003800000000000000000000030034
:2000C000040005000000003900360001010101010101010202020202020202010204081071
:2000E0002040800102040810204080001B0D11241FBECFE5D2E0DEBFCDBF10E0A0E6B0E052
:20010000EEE1FBE102C005900D92AE3FB107D9F721E0AEEFB0E001C01D92AC3AB207E1F7B4
:2001200010E0C7E7D0E003C02197FE01F0DCC637D107D1F7B2D9F1CC63CFFC0113821282EE
:200140000895909192019923A1F090919101903240F590919001E92FF0E0E250FF4F80833A
:2001600081E0890F809390018093910181E090E0089520918F0190918E012F5F921B9F7094
:2001800081F090918F019F5F9F7020918E019217E1F3E92FF0E0E25FFE4F808390938F0147
:2001A000E5CF90E080E00895CCCF3FB7F89480912C0190912D01A0912E01B0912F0122B7CA
:2001C00008B601FE05C02F3F19F00196A11DB11D3FBFBA2FA92F982F8827BC01CD01620FD2
:2001E000711D811D911D42E0660F771F881F991F4A95D1F70895CF92DF92EF92FF92CF930F
:20020000DF936B017C01D1DFEB01CFDF6C1B7D0B683E7340A0F0C114D104E104F10439F490
:20022000DF91CF91FF90EF90DF90CF90089581E0C81AD108E108F108C851DC4FE6CFC114A9
:20024000D104E104F10409F7EBCF90918D0180918C01891B8F70089580919101882339F031
:2002600020919001821318C08FEF9FEF0895EDDF8823D1F390918D0180918C019817E1F31B
:20028000E0918D01EF5FEF70E0938D01F0E0E250FF4F808190E00895E22FF0E0E250FF4FF2
:2002A000808190E02F5F209390010895FC01138212820895FC0183A182FD03C083A185FF90
:2002C00007C083A180FD06C083A182958170089580E0089581E00895FC0182818F5F8F703F
:2002E0009381981749F0A281AE0FBF2FB11D14966C93828381E0089581E081A380E0089538
:20030000AF92BF92CF92DF92EF92FF920F931F93CF93DF93EC01162F89A1882309F440C03B
:200320009A818B8198133CC08AA1811139C05E01F12CE12CCC24C394D12C8BA19CA10E2DC8
:20034000892790E00E2C02C0959587950A94E2F780FF1BC0F50167A18BA190E00E2C02C0D4
:20036000959587950A94E2F780FF6068CE01B4DF8823B1F09CA18BA1960101C0220F0A953A
:20038000EAF78927822389278CA3FFEFEF1AFF0A8FEFA81AB80A98E0E916F10471F619A2B8
:2003A0008AA1823309F4C7C0C0F4813109F465C0813209F48AC0811117C081E1103F09F440
:2003C000E7C01A3A11F01C3F19F51FA7123109F0E8C08BA182608BA307C0873409F4DAC0B9
:2003E00098F4813408F0D2C089A1811102C08BA18CA3DF91CF911F910F91FF90EF90DF90BC
:20040000CF90BF90AF900895813571F71AA2ECCF81E51B3A09F4BCC081E2103E09F4B8C063
:2004200081E4113E09F4B4C089A18111CFCF103F68F68FEF810F60E0833838F4812F8150DA
:20044000990BFC01EA5DFF4F6491CE0145DFBECF143119F48BA18460BECF113119F48BA187
:200460008160B9CF143809F0BFCFCE0123DF882309F4BACF81E08EA3B7CF1AA21231B1F482
:200480008BA18D7F8BA389A18111AECF8FEF810F60E0833838F4812F8150990BFC01EA5D1F
:2004A000FF4F64916068CE0117DF9ECF193519F48BA1877FE7CF143119F48BA18B7FE2CF83
:2004C000113109F78BA18E7FDDCF82E3103F09F45FC0123181F0193571F089A181110BC03B
:2004E000EFEEE10F60E0ED3620F4F0E0E459FF4F6081CE01F1DE1AA2143119F48BA18062C2
:200500006ACF1F3119F48BA1806465CF173219F48BA1806860CF113119F48BA180615BCFE2
:20052000113709F061CFCE01C5DE882309F45CCF81E08DA359CF1AA2123109F455CF1935DE
:2005400009F452CF89A181110CC0EFEEE10F60E0ED3620F4F0E0E459FF4F60816068CE01DE
:20056000BBDE143119F48BA18F7D35CF1F3119F48BA18F7B30CF173219F48BA18F772BCF40
:20058000113109F031CF8BA18F7E25CF8AA18F5F8AA32ACF89A1811139CF6EE7CE019CDE52
:2005A00035CF193509F054CF8BA1886014CFFC0182818F5F87709381981741F0A2819485C1
:2005C000AE0FBF2FB11D14969C9382830895FC0182818F5F8F709381981741F0A281948906
:2005E000AE0FBF2FB11D14969C9382830895FC011382128212A213A211A216A215A20895B9
:20060000FC0192818381981759F0A381AE0FBF2FB11D14968C9193819F5F9F709383089596
:2006200080E0089580912501833049F48091410190914201892B19F0E2E0FEE1099482E37F
:2006400090E090934201809341010895FC0192818381981759F0A381AE0FBF2FB11D14967F
:200660008C9193819F5F97709383089580E00895FF920F931F93CF93DF9300D01F92CDB7D6
:20068000DEB780911F01909120018730910551F580914001813109F04BC09091450180913F
:2006A0004601981709F444C083E491E0A9DF90E08A3A910511F078DD03C084E08093400148
:2006C00080911F019091200180339105A1F58BE290E00F900F900F90DF91CF911F910F91EE
:2006E000FF9062CD8830910531F480911E01082E000C990BE0CF8831910509F03CC08091AF
:20070000630190E0D8CF887C883079F483E991E09DDFF82E83E991E099DF082F812F11DD8C
:200720008F2D0FDD802F0DDDCBCF84E080933B0190E080E0C0CF9C012153310922303105F9
:2007400018F490E080E0C5CF8E38910559F5E0E0FEE1E4918FEF90E0EA3809F0BACFE1E018
:20076000FEE184910F900F900F90DF91CF911F910F91FF90E6CC819709F0A2CF809195011E
:2007800090919601891B8770833090F283E991E05DDF182F89838A3A09F0B5CF84E08093AD
:2007A0003B018ECF0F900F900F90DF91CF911F910F91FF90089587FF06C08F77833018F06A
:2007C0008730D0F48F5F90E0FC01E552FF4F2491FC01E553FF4FE491EE23A1F0F0E0EE0FA2
:2007E000FF1FEB53FF4FA591B491EC91E22381E090E051F480E008958B3010F48B5FE3CFE4
:2008000080E0E1CF80E090E00895CF93DF93EC018881D1DF29813A812115310521F021508E
:2008200031093A83298329813A8120363105F8F4232B91F481111EC08B81813079F482E069
:200840008B8384E690E09A838983EE81FF81309771F0DF91CF91099481110CC08B81811107
:2008600006C081E08B8384E690E09A838983DF91CF9108958130D9F78B81813041F41B82C3
:2008800084E690E09A838983EC81FD81E0CF823071F71B82E8CF90E0FC01EB54FF4F34918E
:2008A000FC01E552FF4F2491FC01E553FF4FE491EE23C1F0332329F03330A9F487B58F7796
:2008C00087BDF0E0EE0FFF1FE155FF4FA591B4918FB7611112C0F8949C91E22FE095E92315
:2008E000EC938FBF0895343019F487B58F7DE8CF353039F787B5877FE3CFF894EC91E22B7F
:20090000EFCF80917301882389F08091410190914201892B59F460E081E0BDDF6CE271E0DC
:2009200080E090E068DC61E081E0B5CF0895CF93DF9390E0FC01E552FF4F249185539F4F9F
:20094000FC0184918823C9F090E0880F991FFC01E755FF4FA591B491FC01E155FF4FC59189
:20096000D49161110DC09FB7F8948C91209582238C938881282328839FBFDF91CF91089591
:20098000623051F49FB7F8943C91822F809583238C93E8812E2BEFCF8FB7F894EC912E2B1E
:2009A0002C938FBFEACF61E080E075DF60E080E0BECF61E080E0BBDF60E080E06CCF61E0F8
:2009C00085E069DF10927301F4DF64EF71E080E090E011DCE8CFCF93DF93EC0160E08BE0FD
:2009E000A6DF60E082E0A3DF1C8A1D8A1E8A1B8EDF91CF910895CF93DF93EC01ECDF1AA2FB
:200A0000DF91CF910895CF92DF92EF92FF9280915E01811188C08FB7F894C0902801D09090
:200A20002901E0902A01F0902B018FBF80915A0190915B01A0915C01B0915D01C296A11DCB
:200A4000B11DC816D906EA06FB0618F083E491E0D2DFC0925A01D0925B01E0925C01F092CD
:200A60005D018BE0A8DE909159019930F0F4913028F1882389F0292F2150330BA90121E04F
:200A800030E0B90102C0660F771F4A95E2F720915701262B2093570120915801820F8093F4
:200AA00058019F5F9093590104C0993069F09A3091F0FF90EF90DF90CF9008958111F9CF5E
:200AC00081E080935901F5CF90915801890F809358018AE0F6CF8091630160915701813068
:200AE00021F46E3F31F46093630183E491E008DC13C06A3FD1F7909161019230A1F79091BA
:200B000060018093630190935F01109260018093610183E080936201109259011092580132
:200B200010925701C6CF809162018111C2CF80915901883079F160F08930B9F18A3009F09C
:200B4000B8CF83E491E0FF90EF90DF90CF9053CF80915F0160E080FF17C08BE0E8DE61E0BF
:200B60008BE099DE90915F0180915801890F8093580180915F0190E09595879580935F010A
:200B8000809159018F5F9DCF8BE085DE61E08BE0CEDEE8CF8091580160E080FF07C08BE058
:200BA0007ADE61E08BE0C3DEEBCF60E08BE0BFDE61E08BE070DEE4CFCF93DF93EC011BDF26
:200BC0001E8E1F8ECE0113DD18A2DF91CF9108958F929F92AF92BF92CF92DF92EF92FF920E
:200BE000E8DE60E085E057DE8FB7F8948090280190902901A0902A01B0902B018FBFC12CFE
:200C0000D12C760183E0D7DD892B81F48FB7F894C0902801D0902901E0902A01F0902B0104
:200C20008FBFC818D908EA08FB08ECCF81E0C81AD108E108F1088EEEC81682E0D806E10478
:200C4000F10450F0BCDEFF90EF90DF90CF90BF90AF909F908F90A7CE83E491E0ADDF64EFE1
:200C600071E080E090E0C7DA81E080937301EBCF8091410190914201892B31F0809125014D
:200C8000816080932501CECC80917301811101C09FCF95CECF93DF93EC0160E08DE047DE64
:200CA00060E08EE044DE1C861D861E861B8ADF91CF91089583E991E0EDDFE3E9F1E0168A83
:200CC000178A1382128208958091410190914201892B31F080912501826080932501A2CC61
:200CE00083E491E084DCE6DF1092AB0180917301882391F05EDE64EF71E080E090E07BDAF3
:200D000052DE61E086E013DE60E086E0C4DD84E080933B01809340010895CF92DF92EF92CD
:200D2000FF928091A601811188C08FB7F894C0902801D0902901E0902A01F0902B018FBF26
:200D40008091A2019091A301A091A401B091A501C296A11DB11DC816D906EA06FB0618F0C3
:200D600083E991E097DFC092A201D092A301E092A401F092A5018DE01EDD9091A1019930F2
:200D8000F0F4913028F1882389F0292F2150330BA90121E030E0B90102C0660F771F4A9549
:200DA000E2F720919F01262B20939F012091A001820F8093A0019F5F9093A10104C099307E
:200DC00069F09A3091F0FF90EF90DF90CF9008958111F9CF81E08093A101F5CF9091A00100
:200DE000890F8093A0018AE0F6CF8091AB0160919F01813021F46E3F31F46093AB0183E987
:200E000091E0D5DB13C06A3FD1F79091A9019230A1F79091A8018093AB019093A701109252
:200E2000A8018093A90183E08093AA011092A1011092A00110929F01C6CF8091AA0181117F
:200E4000C2CF8091A101883079F160F08930B9F18A3009F0B8CF83E991E0FF90EF90DF90E5
:200E6000CF9018CF8091A70160E080FF17C08DE05EDD61E08DE00FDD9091A7018091A00120
:200E8000890F8093A0018091A70190E0959587958093A7018091A1018F5F9DCF8DE0FBDC8B
:200EA00061E08DE044DDE8CF8091A00160E080FF07C08DE0F0DC61E08DE039DDEBCF60E07D
:200EC0008DE035DD61E08DE0E6DCE4CF0F931F93CF93DF931092200110921F0110922201FE
:200EE000109221011092240110922301D0E0C0E0809191018823A1F090919001891B990B78
:200F0000892B99F0C330D10574F4A6D9FE01EE0FFF1FE15EFE4F9927918380832196E8CFF9
:200F200094D990E0EDCF98D9E3CFC230D10559F480911F01909120014A9769F4DF91CF915F
:200F40001F910F9108952397C9F780911F01909120014A9799F780911F0190912001813022
:200F6000910551F420912101309122012115310569F02130310561F1029749F48091210138
:200F800090912201892B19F49FDE01C018DDC0911F01D0912001C330D10511F58091210124
:200FA00090912201892BE1F4ACDCCF38D10531F68091210190912201C19709F0BFCF80ED15
:200FC00097E0909342018093410110922501B6CFF6DC68EE73E080E090E00DD9F9DDD7CFE5
:200FE000C530D10599F4009121011091220161E086E09DDC1016110624F060E086E04BDCE4
:20100000D4CF61E000381105CCF7F7CFC830D10529F48091210180931E0190CFC931D10596
:2010200079F49091210181E08093630190935F01109260018093610183E0809362017ECF07
:20104000CA31D10509F0B1CF809123019091210121E02093630190935F018093600182E05D
:20106000E9CF1F920F920FB60F9211242F933F938F939F93AF93BF938091280190912901CA
:20108000A0912A01B0912B013091270123E0230F2D3768F126E8230F0296A11DB11D209395
:2010A00027018093280190932901A0932A01B0932B0180912C0190912D01A0912E01B09184
:2010C0002F010196A11DB11D80932C0190932D01A0932E01B0932F01BF91AF919F918F9177
:2010E0003F912F910F900FBE0F901F9018950196A11DB11DD4CF1F920F920FB60F92112446
:201100002F933F934F935F936F937F938F939F93AF93BF93EF93FF938091370190913801B4
:20112000892B29F0E0913701F09138010995FF91EF91BF91AF919F918F917F916F915F91F1
:201140004F913F912F910F900FBE0F901F9018951F920F920FB60F9211242F933F934F9355
:201160005F936F937F938F939F93AF93BF93EF93FF938091350190913601892B29F0E09190
:201180003501F09136010995FF91EF91BF91AF919F918F917F916F915F914F913F912F9163
:2011A0000F900FBE0F901F9018951F920F920FB60F9211240F931F932F933F934F935F931F
:2011C0006F937F938F939F93AF93BF93CF93EF93FF9380912601823009F476C0C8F4882319
:2011E00099F1813009F456C0FF91EF91CF91BF91AF919F918F917F916F915F914F913F91A1
:201200002F911F910F910F900FBE0F901F901895843009F45FC0B8F1853031F784E080938A
:2012200026019FB180918C018F5F8F7020918D01281709F470C080938C01E0918C01F0E093
:20124000E250FF4F908319C08FB1882331F08FB1869590913001891319C0789B12C0E0919E
:201260003301F0913401309729F080918F0180938E01099581E0809326011FB8B89A8EE78A
:2012800021C084E0F8CF8FB1882321F0B89888EA8DB917C080918E0190918F019817B1F3C3
:2012A00080918E018F5F8F7080938E01E0918E01F0E0E25FFE4F80818FB982E080932601BC
:2012C000B89A80E78EB990CF83E080932601B8981FB8D5CF85E080932601B89880E78EB9AA
:2012E00000913101109132010115110509F47CCFC0918C0180918D018C1709F475CF8EB143
:201300008E7AE9F3759B70CFA0D790E0F8010995C0938D0169CFB898B2CF1F920F920FB61B
:201320000F9211240F931F932F933F934F935F936F937F938F939F93AF93BF93CF93EF933B
:20134000FF9300913101109132010115110561F0C0918C0180918D018C1731F076D790E0E9
:20136000F8010995C0938D0110922601B898B29B1AC0B09BFCCF88EA8DB980EF8EB9FF91A1
:20138000EF91CF91BF91AF919F918F917F916F915F914F913F912F911F910F910F900FBE61
:2013A0000F901F90189588EFE7CF1F920F920FB60F9211242F933F934F935F936F937F939C
:2013C0008F939F93AF93BF93EF93FF9315BC1EBC80916201882331F1809162018330A9F461
:2013E00060E082E058DA61E082E0A1DA60E08BE052DA61E08BE09BDA81E080935E0180911F
:2014000062018150809362010DC0809162018130B1F760E082E08BDA109262011092590180
:20142000109258018091AA01882331F18091AA018330A9F460E08EE02EDA61E08EE077DA66
:2014400060E08DE028DA61E08DE071DA81E08093A6018091AA0181508093AA010DC08091A0
:20146000AA018130B1F760E08EE061DA1092AA011092A1011092A001FF91EF91BF91AF910B
:201480009F918F917F916F915F914F913F912F910F900FBE0F901F90189593E093BF789454
:2014A00089B7826089BF90BF81E087BD86BD87E08FBD87E886B9F89410BE17BC16BC15BC5A
:2014C0001EBC19BC1CBC85E48FBD84E68DBD89B7806489BF7894109290011092910110929B
:2014E000920110928D0110928C0110928E0110928F0182E480933001109234011092330140
:201500001092320110923101C29AC09ABA9AB89888EA8DB980EF8EB986E697E09093320121
:201520008093310188E393E0909334018093330188E396E0909389018093880190938B0110
:2015400080938A0184E696E09093810180938001909383018093820181E894E0909379011D
:201560008093780160E083E0E2D961E085E0DFD961E085E090D961E086E0D9D961E086E014
:20158000D6D960E086E087D914DA61E081E0CFD961E081E080D98FB7F89423E035E03093B6
:2015A0003801209337018FBF85B78C7F826085BF8BB780688BBF8FB7F8942DE836E0309318
:2015C0003601209335018FBF85B78C7F826085BF8BB780648BBF84E0F82EC1E094EFA92E3B
:2015E00023E0E22E0FEF10E03CE3932E43EFB42ECC24CA9453E0D52E84E891E006D98CE743
:2016000091E003D984E791E000D9E0913B01EE2309F444C080917301811140C010923B0114
:2016200010923A01D0926100C092600043DB1092AB019091400180913F018F5F80933F01F8
:20164000D0917301992309F431C1D1112FC11092400110923E011093630000936200809168
:201660006801882319F030DB1092680180916901882319F046D91092690180914101909169
:201680004201009729F0019790934201809341016AE070E080E090E0AED5AECF80913A014E
:2016A000882339F180916000909161000097E1F4D091390110923A018090AB0181E08816C3
:2016C00009F4B7CFEC3020F5F0E0E859F44F099412C021C039C0E8C056C06EC07DC093C03D
:2016E0009FC0BAC0D3C0DCC001979093610080936000DE2FE1CF80917301882349F0C093DA
:201700003A011093610000936000F0923901D1E0D0933B018ECF9091950180919601981720
:20172000B9F383E991E092D78A3A51F4C0933A011093610000936000F0923901D2E0E8CF04
:201740008C3F31F7DFEFE4CF90919501809196019817F1F283E991E079D78111D9CFC0936A
:20176000AB01B092A7011092A801C093A901E092AA01C0933A011093610000936000F09267
:201780003901D8E0C5CF1092960110929501C093AB018FEF8093A7011092A801C093A901D2
:2017A000E092AA01C0933A01109361000093600080933901D5E0ACCF8AEF8812C3CF83E9F9
:2017C00091E044D7C0933A011093610000936000F0923901D6E09CCF9091950180919601BC
:2017E000981709F495CF83E991E030D78A3A09F0A9CFC0933A011093610000936000F092B9
:201800003901D7E085CF9091950180919601981709F47ECF83E991E019D7811193CF9FCFFC
:2018200083E991E013D78AEF881611F0D3E070CFC093AB019092A7011092A801C093A901C6
:20184000E092AA01C0933A011093610000936000F0923901D9E05CCF83E991E0F7D68AEF23
:201860008812E4CFC093AB01A092A7011092A801C093A901E092AA01C0933A01109361004B
:2018800000936000F0923901DAE042CF83E991E0DDD68AEF8812CACF10923A01DBE038CFF3
:2018A00010923A01DCE034CFD4E032CF80913E01882359F1209162003091630021153105EF
:2018C000F1F480913D0110923E0120916301953009F486C0E0F4913009F450C008F441C037
:2018E000943009F464C080934001DD2309F4B7CE83E061D7892B09F0B2CE61D8B0CE21503D
:2019000031093093630020936200892FDECF9E3009F46CC0B8F49D3031F7C09363018DEE23
:2019200080935F0110926001C0936101E0926201C0933E011093630000936200F0923D015A
:201940008EE0D1CF903109F46CC09E3F61F6C0933E011093630000936200F0923D018FEF90
:20196000C2CFDD2309F4BFCFC0933E011093630000936200F0923D0181E0B5CF213009F4CB
:20198000B2CF209172012A3A69F482E080933C0190933E011093630000936200F0923D0112
:2019A0008DE0A1CF2C3F09F09ECF8EEF9CCF83E491E002D9C09363018FEF80935F01109294
:2019C0006001C0936101E0926201C0933E0110936300009362008EEF80933D0185E083CF0A
:2019E000213009F480CF2A3F01F7BECF213009F47ACF2A3FD1F680913C01C093630180937D
:201A00005F0110926001C0936101E0926201C0933E011093630000936200F0923D0180E12B
:201A200062CF213009F45FCF2A3F09F0BECF10923E0181E158CFCF93DF93E4E8F1E012829B
:201A400011821382158214821782168284E0808362E06DD7ECE7F1E012821182138215821C
:201A60001482178216828CE0808362E060D7E4E7F1E0128211821382158214821782168201
:201A800087E0808362E053D7C3E4D1E089EE90E0998388831A821B821C8A1D8A1E8A1F8A33
:201AA000188E198E1A8E1B8E1E8E1F8E18A2CE0192D71E8E1F8E1B821A8285EF90E09983AB
:201AC000888319A21AA21BA21CA21DA21EA288E0E4E6F0E0AAE6B1E001900D928A95E1F740
:201AE0001FA6E3E9F1E08DED90E091838083128213821486158616861786108A118A128A1B
:201B0000138A168A178A108EDF91CF91D3C8EE0FFF1F0590F491E02D0994F894FFCFFF03A3
:201B2000FF001112145911141F273E0000407E0000000000000000003B0000000000000074
:201B40003F0000000000000000000000000000000000000000000000000000000000000046
:201B60000000005F0000000000000000000000000000006C0000000000000000000000009A
:201B8000000051004F500000004B4C540059530000000056007C55000000004A0626039D81
:201BA00000D70200000000EB0400035601E70200000000FB040003F7028001009F8D209FB3
:201BC000FFFFFFFFFFFFFFFFFFFFFFFFFFFFFFFFFFFFFFFFFFFFFFFFFFFFFFFFFFFFFFFF25
:201BE000FFFFFFFFFFFFFFFFFFFFFFFFFFFFFFFFFFFFFFFFFFFFFFFFFFFFFFFFFFFFFFFF05
:201C0000FFFFFFFFFFFFFFFFFFFFFFFFFFFFFFFFFFFFFFFFFFFFFFFFFFFFFFFFFFFFFFFFE4
:201C2000FFFFFFFFFFFFFFFFFFFFFFFFFFFFFFFFFFFFFFFFFFFFFFFFFFFFFFFFFFFFFFFFC4
:201C4000FFFFFFFFFFFFFFFFFFFFFFFFFFFFFFFFFFFFFFFFFFFFFFFFFFFFFFFFFFFFFFFFA4
:201C6000FFFFFFFFFFFFFFFFFFFFFFFFFFFFFFFFFFFFFFFFFFFFFFFFFFFFFFFFFFFFFFFF84
:201C8000FFFFFFFFFFFFFFFFFFFFFFFFFFFFFFFFFFFFFFFFFFFFFFFFFFFFFFFFFFFFFFFF64
:201CA000FFFFFFFFFFFFFFFFFFFFFFFFFFFFFFFFFFFFFFFFFFFFFFFFFFFFFFFFFFFFFFFF44
:201CC000FFFFFFFFFFFFFFFFFFFFFFFFFFFFFFFFFFFFFFFFFFFFFFFFFFFFFFFFFFFFFFFF24
:201CE000FFFFFFFFFFFFFFFFFFFFFFFFFFFFFFFFFFFFFFFFFFFFFFFFFFFFFFFFFFFFFFFF04
:201D0000FFFFFFFFFFFFFFFFFFFFFFFFFFFFFFFFFFFFFFFFFFFFFFFFFFFFFFFFFFFFFFFFE3
:201D2000FFFFFFFFFFFFFFFFFFFFFFFFFFFFFFFFFFFFFFFFFFFFFFFFFFFFFFFFFFFFFFFFC3
:201D4000FFFFFFFFFFFFFFFFFFFFFFFFFFFFFFFFFFFFFFFFFFFFFFFFFFFFFFFFFFFFFFFFA3
:201D6000FFFFFFFFFFFFFFFFFFFFFFFFFFFFFFFFFFFFFFFFFFFFFFFFFFFFFFFFFFFFFFFF83
:201D8000FFFFFFFFFFFFFFFFFFFFFFFFFFFFFFFFFFFFFFFFFFFFFFFFFFFFFFFFFFFFFFFF63
:201DA000FFFFFFFFFFFFFFFFFFFFFFFFFFFFFFFFFFFFFFFFFFFFFFFFFFFFFFFFFFFFFFFF43
:201DC000FFFFFFFFFFFFFFFFFFFFFFFFFFFFFFFFFFFFFFFFFFFFFFFFFFFFFFFFFFFFFFFF23
:201DE000FFFFFFFFFFFFFFFFFFFFFFFFFFFFFFFFFFFFFFFFFFFFFFFFFFFFFFFFFFFFFFFF03
:201E00008A02F894C0EAD0E01E012E014427552766270FEF1FEF20E2E5D0C0E6D0E008E18C
:201E200015E923E1DFD0C65209E209930FEC0993C45F0BE309930FEC099307E409930FECF5
:201E40000993EE27FF27B3D000E41127380112D07894FFCFF894A89500E004BF01B508618C
:201E600001BD00E001BDEE27FF27C0EAD0E0A1D07894C6C0B898BA9AC09AC29A08EA0DB95C
:201E800000E70EB9089571E0B89806B305700430E1F308EF00FD08EA0DB900EF0EB9189511
:201EA000713071F40FB1102F0695023461F5812F80FF992772E07F98B89A0EE70EB91895E3
:201EC000723039F59238C1F4F89400EF0EB900270DB9BA98B898C298C098F301593018F0AB
:201EE00066D0B096B096FE3118F413E06FD0F9CFFFCF0CE001BDFFCF80FD22C073E0B898A3
:201F000000E70EB91895B89808EA0DB900E70EB91895733099F40FB1903011F4902FCACFF6
:201F2000903841F6E2014A3040F4493029F0483011F009932E01600F4395BCCF753061F56E
:201F400076E010E0913819F5F30112E04930E1F413E06030C9F415E0072D0E31A8F4539504
:201F6000503119F0583031F00CC021D0B096B0963F0158E0C0E6D0E02E010FEF1FEF20E2DA
:201F800031D011E0120101C02101442766271FB9B89A00E70EB91895763029F477E0B89872
:201FA0000EE70EB918950FB100FDADCFC9CFC0E6D0E013E00BD000E40990199011E006D0D6
:201FC000EE5F0250C9F7E05415E000C037B730FDFDCF3CB331FDFDCF17BFE89537B7312354
:0E1FE000E9F70895099319932A95E1F70895FA
:00000001FF
