:1000000076C0D1C899C0FCC997C096C055C8B0C9C0
:10001000F7C892C091C090C08FC098C88DC08CC0E6
:100020008BC08AC089C07800747270717B00797748
:100030007573100100003C2C003A11020000002EE4
:10004000201F12030000302F2113050400003D3152
:100050002215140600003332242316070000003452
:10006000251708090000352618190B0A0000363735
:1000700027281A0C00000029001B0D00001E392B38
:100080001C001D0000002D000000000F00005D009E
:100090005C5B0000006368626166606E5A7A6A6742
:1000A0006964657D000000007600003A00370000BA
:1000B000003B0038000000000000000000000300CA
:1000C00004000500000000390036000101010101B3
:1000D00001010102020202020202020102040810EE
:1000E000204080010204081020408000C90D112426
:1000F0001FBECFE5D2E0DEBFCDBF11E0A0E6B0E08D
:10010000EAE7FCE102C005900D92A030B107D9F7F3
:1001100021E0A0E0B1E001C01D92A73BB207E1F7EA
:1001200010E0C7E7D0E003C02197FE019EDDC6378F
:10013000D107D1F7DDD99FCD63CFFC0113821282A5
:100140000895909195019923A1F090919401903296
:1001500040F590919301E92FF0E0E050FF4F80834C
:1001600081E0890F809393018093940181E090E076
:10017000089520919201909191012F5F921B9F70A1
:1001800081F0909192019F5F9F7020919101921751
:10019000E1F3E92FF0E0E05FFE4F8083909392015E
:1001A000E5CF90E080E00895CCCF3FB7F894809100
:1001B0002E0190912F01A0913001B091310122B711
:1001C00008B601FE05C02F3F19F00196A11DB11D13
:1001D0003FBFBA2FA92F982F8827BC01CD01620FEE
:1001E000711D811D911D42E0660F771F881F991FA9
:1001F0004A95D1F70895CF92DF92EF92FF92CF9375
:10020000DF936B017C01D1DFEB01CFDF6C1B7D0B3A
:10021000683E7340A0F0C114D104E104F10439F444
:10022000DF91CF91FF90EF90DF90CF90089581E024
:10023000C81AD108E108F108C851DC4FE6CFC11453
:10024000D104E104F10409F7EBCF90919001809182
:100250008F01891B8F70089580919401882339F054
:1002600020919301821318C08FEF9FEF0895EDDF67
:100270008823D1F39091900180918F019817E1F339
:10028000E0919001EF5FEF70E0939001F0E0E050BB
:10029000FF4F808190E00895E22FF0E0E050FF4FA3
:1002A000808190E02F5F209393010895FC0183A14A
:1002B00082FD03C083A185FF07C083A180FD06C026
:1002C00083A182958170089580E0089581E008956A
:1002D000FC0182818F5F8F709381981749F0A28112
:1002E000AE0FBF2FB11D14966C93828381E00895E9
:1002F00081E081A380E00895AF92BF92CF92DF9218
:10030000EF92FF920F931F93CF93DF93EC016A3A22
:1003100011F06C3FA9F480914301853179F484E0B8
:10032000809343011FA6DF91CF911F910F91FF9002
:10033000EF90DF90CF90BF90AF9008956FA7F3CF6D
:10034000162F89A1882309F440C09A818B819813C4
:100350003CC08AA1811139C05E01F12CE12CCC2472
:10036000C394D12C8BA19CA10E2D892790E00E2C3B
:1003700002C0959587950A94E2F780FF1BC0F501AE
:1003800067A18BA190E00E2C02C0959587950A94E9
:10039000E2F780FF6068CE019BDF8823B1F09CA16B
:1003A0008BA1960101C0220F0A95EAF789278223C3
:1003B00089278CA3FFEFEF1AFF0A8FEFA81AB80A5C
:1003C00098E0E916F10471F619A28AA1823309F4C2
:1003D000B5C090F5813109F453C0813209F478C079
:1003E000811131C081E1103F09F4D5C081E51B3A8C
:1003F00009F4D1C081E2103E09F4CDC081E4113E80
:1004000009F4C9C089A1811110C0103F70F48FEFA9
:10041000810F60E0833838F4812F8150990BFC0103
:10042000EA5DFF4F6491CE0153DF123109F0BCC089
:100430008BA182608BA307C0873409F4AEC048F457
:10044000813408F0A6C089A181116DCF8BA18CA346
:100450006ACF8135C1F71AA2F6CF143119F48BA1F6
:100460008460E8CF113119F48BA18160E3CF143897
:1004700051F7CE011BDF882331F381E08EA3E3CF58
:100480001AA21231B1F48BA18D7F8BA389A18111A6
:10049000DACF8FEF810F60E0833838F4812F8150FD
:1004A000990BFC01EA5DFF4F64916068CE0110DF9B
:1004B000CACF193519F48BA1877FE7CF143119F40E
:1004C0008BA18B7FE2CF113109F78BA18E7FDDCF1E
:1004D00082E3103F09F45FC0123181F0193571F0E9
:1004E00089A181110BC0EFEEE10F60E0ED3620F441
:1004F000F0E0E259FF4F6081CE01EADE1AA214312A
:1005000019F48BA1806296CF1F3119F48BA18064FE
:1005100091CF173219F48BA180688CCF113119F467
:100520008BA1806187CF113709F08DCFCE01BEDE60
:10053000882309F488CF81E08DA385CF1AA21231D8
:1005400009F481CF193509F47ECF89A181110CC03E
:10055000EFEEE10F60E0ED3620F4F0E0E259FF4FFE
:1005600060816068CE01B4DE143119F48BA18F7DF7
:1005700061CF1F3119F48BA18F7B5CCF173219F437
:100580008BA18F7757CF113109F05DCF8BA18F7E73
:1005900051CF8AA18F5F8AA356CF89A181115BCFEA
:1005A0006EE7CE0195DE57CF193509F056CF8BA1F6
:1005B000886040CFFC0182818F5F8F709381981794
:1005C00041F0A2819489AE0FBF2FB11D14969C9368
:1005D00082830895FC011382128212A213A211A237
:1005E00016A215A20895FC0192818381981759F0F3
:1005F000A381AE0FBF2FB11D14968C9193819F5F85
:100600009F709383089580E008958091270183303F
:1006100049F48091440190914501892B19F0E1E062
:10062000FFE0099482E390E09093450180934401B8
:1006300008956F927F928F929F92AF92BF92CF92C6
:10064000DF92EF92FF920F931F93CF93DF93CDB77B
:10065000DEB70DB71EB7809121019091220187303E
:10066000910581F480914301853109F041C0909159
:100670004801809149019817D9F186E491E0B3DFF0
:1006800090E008C08830910539F480912001082E4F
:10069000000C990B89DD84C08831910509F04DC0AB
:1006A00080916601EDCF887C8830D9F44701FFEF57
:1006B0008F1A9F0A6624639486E991E094DFF4011F
:1006C00081934F0163947610F7CF4701F401819134
:1006D0004F0137DDC4018E199F098C159D05B0F3BC
:1006E0005AC084E080933E0190E080E05DDD53C01D
:1006F00090E080E0CFCF8033910521F48DE290E04F
:1007000053DD59C08133910519F481E090E0F8CFB1
:100710008233910519F490E080E0F2CF8E38910594
:1007200009F049C0E0E0FEE1E4918FEF90E0EA38A3
:1007300039F7E1E0FEE184913DC0819789F5809130
:10074000610094E0792E811102C083E0782E8091BF
:10075000980190919901891B8F70871548F2ADB669
:10076000BEB6C72CD12C8DB79EB78C199D090FB67C
:10077000F8949EBF0FBE8DBFEDB7FEB731967F01D7
:1007800086E991E030DFF70180838A3A09F08BCF68
:1007900084E080933E010FB6F894BEBE0FBEADBE9E
:1007A00080912101909122018232910509F0A3CF1D
:1007B00080916100C6DC0FB6F8941EBF0FBE0DBF5E
:1007C000DF91CF911F910F91FF90EF90DF90CF902D
:1007D000BF90AF909F908F907F906F90089587FF0C
:1007E00006C08F77833018F08730D0F48F5F90E0A9
:1007F000FC01E552FF4F2491FC01E553FF4FE491CA
:10080000EE23A1F0F0E0EE0FFF1FEB53FF4FA59199
:10081000B491EC91E22381E090E051F480E00895FE
:100820008B3010F48B5FE3CF80E0E1CF80E090E08D
:100830000895CF93DF93EC018881D1DF29813A813C
:100840002115310521F0215031093A83298329816D
:100850003A8120363105F8F4232B91F481111EC022
:100860008B81813079F482E08B8384E690E09A83F7
:100870008983EE81FF81309771F0DF91CF910994E8
:1008800081110CC08B81811106C081E08B8384E6CD
:1008900090E09A838983DF91CF9108958130D9F7D1
:1008A0008B81813041F41B8284E690E09A838983B6
:1008B000EC81FD81E0CF823071F71B82E8CF90E0C0
:1008C000FC01EB54FF4F3491FC01E552FF4F2491A2
:1008D000FC01E553FF4FE491EE23C1F0332329F0EF
:1008E0003330A9F487B58F7787BDF0E0EE0FFF1F97
:1008F000E155FF4FA591B4918FB7611112C0F894E3
:100900009C91E22FE095E923EC938FBF089534305A
:1009100019F487B58F7DE8CF353039F787B5877FF4
:10092000E3CFF894EC91E22BEFCF8091760188230E
:1009300089F08091440190914501892B59F460E040
:1009400081E0BDDF6CE271E080E090E054DC61E0CA
:1009500081E0B5CF0895CF93DF9390E0FC01E5529D
:10096000FF4F249185539F4FFC0184918823C9F048
:1009700090E0880F991FFC01E755FF4FA591B491B6
:10098000FC01E155FF4FC591D49161110DC09FB796
:10099000F8948C91209582238C9388812823288336
:1009A0009FBFDF91CF910895623051F49FB7F894C3
:1009B0003C91822F809583238C93E8812E2BEFCF5F
:1009C0008FB7F894EC912E2B2C938FBFEACF61E078
:1009D00080E075DF60E080E0BECF61E080E0BBDFFB
:1009E00060E080E06CCF61E085E069DF1092760125
:1009F000F4DF64EF71E080E090E0FDDBE8CFCF93BF
:100A0000DF93EC0160E08BE0A6DF60E082E0A3DF33
:100A10001C8A1D8A1E8A1B8EDF91CF910895CF9369
:100A2000DF93EC01ECDF1AA2DF91CF910895CF9212
:100A3000DF92EF92FF9280916101811188C08FB7A0
:100A4000F894C0902A01D0902B01E0902C01F090F6
:100A50002D018FBF80915D0190915E01A0915F019A
:100A6000B0916001C296A11DB11DC816D906EA0653
:100A7000FB0618F086E491E0D2DFC0925D01D092CF
:100A80005E01E0925F01F09260018BE0A8DE909140
:100A90005C019930F0F4913028F1882389F0292FF6
:100AA0002150330BA90121E030E0B90102C0660FEB
:100AB000771F4A95E2F720915A01262B20935A017D
:100AC00020915B01820F80935B019F5F90935C019B
:100AD00004C0993069F09A3091F0FF90EF90DF9068
:100AE000CF9008958111F9CF81E080935C01F5CF1B
:100AF00090915B01890F80935B018AE0F6CF809132
:100B0000660160915A01813021F46E3F31F46093A7
:100B1000660186E491E0F0DB13C06A3FD1F7909163
:100B200064019230A1F790916301809366019093E4
:100B30006201109263018093640183E080936501F8
:100B400010925C0110925B0110925A01C6CF809105
:100B500065018111C2CF80915C01883079F160F02C
:100B60008930B9F18A3009F0B8CF86E491E0FF907E
:100B7000EF90DF90CF9053CF8091620160E080FFD3
:100B800017C08BE0E8DE61E08BE099DE90916201B6
:100B900080915B01890F80935B018091620190E0FD
:100BA000959587958093620180915C018F5F9DCFC1
:100BB0008BE085DE61E08BE0CEDEE8CF80915B01EB
:100BC00060E080FF07C08BE07ADE61E08BE0C3DE8F
:100BD000EBCF60E08BE0BFDE61E08BE070DEE4CF66
:100BE000CF93DF93EC011BDF1E8E1F8ECE01F2DC54
:100BF00018A2DF91CF9108958F929F92AF92BF92EA
:100C0000CF92DF92EF92FF92E8DE60E085E057DE60
:100C10008FB7F89480902A0190902B01A0902C011E
:100C2000B0902D018FBFC12CD12C760183E0D7DD90
:100C3000892B81F48FB7F894C0902A01D0902B01B2
:100C4000E0902C01F0902D018FBFC818D908EA0858
:100C5000FB08ECCF81E0C81AD108E108F1088EEE5C
:100C6000C81682E0D806E104F10450F0BCDEFF9023
:100C7000EF90DF90CF90BF90AF909F908F90A7CED6
:100C800086E491E0ADDF64EF71E080E090E0B3DAFC
:100C900081E080937601EBCF8091440190914501F2
:100CA000892B31F080912701816080932701ADCCA1
:100CB00080917601811101C09FCF95CECF93DF93B4
:100CC000EC0160E08DE047DE60E08EE044DE1C8AEF
:100CD0001D8A1E8A1B8EDF91CF91089586E991E0CF
:100CE000EDDFE6E9F1E0168E178E13821282089589
:100CF0008091440190914501892B31F08091270129
:100D000082608093270181CC86E491E063DCE6DF9A
:100D10001092B60180917601882391F05EDE64EF37
:100D200071E080E090E067DA52DE61E086E013DE99
:100D300060E086E0C4DD84E080933E01809343015F
:100D40000895CF92DF92EF92FF928091B1018111CD
:100D500088C08FB7F894C0902A01D0902B01E09002
:100D60002C01F0902D018FBF8091AD019091AE01CB
:100D7000A091AF01B091B001C296A11DB11DC816DE
:100D8000D906EA06FB0618F086E991E097DFC092E3
:100D9000AD01D092AE01E092AF01F092B0018DE0D2
:100DA0001EDD9091AC019930F0F4913028F1882348
:100DB00089F0292F2150330BA90121E030E0B9013E
:100DC00002C0660F771F4A95E2F72091AA01262BF1
:100DD0002093AA012091AB01820F8093AB019F5F0A
:100DE0009093AC0104C0993069F09A3091F0FF9073
:100DF000EF90DF90CF9008958111F9CF81E080933B
:100E0000AC01F5CF9091AB01890F8093AB018AE0E3
:100E1000F6CF8091B6016091AA01813021F46E3F36
:100E200031F46093B60186E991E0C4DB13C06A3FF8
:100E3000D1F79091B4019230A1F79091B3018093D2
:100E4000B6019093B2011092B3018093B40183E094
:100E50008093B5011092AC011092AB011092AA01DF
:100E6000C6CF8091B5018111C2CF8091AC0188308D
:100E700079F160F08930B9F18A3009F0B8CF86E9AC
:100E800091E0FF90EF90DF90CF9018CF8091B2016A
:100E900060E080FF17C08DE05EDD61E08DE00FDD7A
:100EA0009091B2018091AB01890F8093AB01809149
:100EB000B20190E0959587958093B2018091AC0145
:100EC0008F5F9DCF8DE0FBDC61E08DE044DDE8CFFE
:100ED0008091AB0160E080FF07C08DE0F0DC61E055
:100EE0008DE039DDEBCF60E08DE035DD61E08DE058
:100EF000E6DCE4CF0F931F93CF93DF931092220190
:100F000010922101109224011092230110922601C7
:100F100010922501D0E0C0E0809194018823A1F0D7
:100F200090919301891B990B892B99F0C330D105BE
:100F300074F492D9FE01EE0FFF1FEF5DFE4F99276B
:100F4000918380832196E8CF80D990E0EDCF84D93A
:100F5000E3CFC230D10559F4809121019091220153
:100F60004A9769F4DF91CF911F910F9108952397CC
:100F7000C9F780912101909122014A9799F78091B8
:100F80002101909122018130910551F4209123019A
:100F9000309124012115310569F02130310581F1AD
:100FA000029749F48091230190912401892B19F42F
:100FB0009FDE01C018DDC0912101D0912201C33014
:100FC000D10531F58091230190912401892B01F500
:100FD000ACDCC032D105C9F5809123019091240188
:100FE000009741F097FD31C09C0123503109223018
:100FF000310558F58093600084E080933E01B2CFC4
:10100000F2DC68EE73E080E090E0F5D8F5DDD3CF58
:10101000C530D10599F4009123011091240161E0BC
:1010200086E099DC1016110624F060E086E047DCCB
:10103000D0CF61E000381105CCF7F7CFC830D1052B
:10104000C1F48091230180932001CF38D10509F0AC
:1010500089CF8091230190912401C19709F082CF1B
:1010600080ED97E090934501809344011092270111
:1010700079CFC931D10579F49091230181E0809332
:10108000660190936201109263018093640183E092
:101090008093650167CFCA31D10509F09ACF80915D
:1010A00025019091230121E0209366019093620134
:1010B0008093630182E0E9CF1F920F920FB60F92E7
:1010C00011242F933F938F939F93AF93BF9380915E
:1010D0002A0190912B01A0912C01B0912D0130910A
:1010E000290123E0230F2D3768F126E8230F02960C
:1010F000A11DB11D2093290180932A0190932B01FA
:10110000A0932C01B0932D0180912E0190912F017D
:10111000A0913001B09131010196A11DB11D8093C4
:101120002E0190932F01A0933001B0933101BF9114
:10113000AF919F918F913F912F910F900FBE0F9084
:101140001F9018950196A11DB11DD4CF1F920F922B
:101150000FB60F9211242F933F934F935F936F938A
:101160007F938F939F93AF93BF93EF93FF93809160
:10117000390190913A01892B29F0E0913901F091E0
:101180003A010995FF91EF91BF91AF919F918F9196
:101190007F916F915F914F913F912F910F900FBE73
:1011A0000F901F9018951F920F920FB60F92112457
:1011B0002F933F934F935F936F937F938F939F935F
:1011C000AF93BF93EF93FF938091370190913801D4
:1011D000892B29F0E0913701F09138010995FF91B1
:1011E000EF91BF91AF919F918F917F916F915F919F
:1011F0004F913F912F910F900FBE0F901F90189518
:101200001F920F920FB60F9211240F931F932F93DB
:101210003F934F935F936F937F938F939F93AF937E
:10122000BF93CF93EF93FF9380912801823009F40D
:1012300076C0C8F4882399F1813009F456C0FF9133
:10124000EF91CF91BF91AF919F918F917F916F91CE
:101250005F914F913F912F911F910F910F900FBE72
:101260000F901F901895843009F45FC0B8F1853055
:1012700031F784E0809328019FB180918F018F5FC7
:101280008F7020919001281709F470C080938F010E
:10129000E0918F01F0E0E050FF4F908319C08FB1D3
:1012A000882331F08FB1869590913201891319C04E
:1012B000789B12C0E0913501F0913601309729F00A
:1012C0008091920180939101099581E0809328019A
:1012D0001FB8B89A8EE721C084E0F8CF8FB1882379
:1012E00021F0B89888EA8DB917C08091910190914A
:1012F00092019817B1F3809191018F5F8F70809365
:101300009101E0919101F0E0E05FFE4F80818FB9A3
:1013100082E080932801B89A80E78EB990CF83E06D
:1013200080932801B8981FB8D5CF85E08093280115
:10133000B89880E78EB900913301109134010115FE
:10134000110509F47CCFC0918F01809190018C1719
:1013500009F475CF8EB18E7AE9F3759B70CF75D78E
:1013600090E0F8010995C093900169CFB898B2CF89
:101370001F920F920FB60F9211240F931F932F936A
:101380003F934F935F936F937F938F939F93AF930D
:10139000BF93CF93EF93FF930091330110913401EA
:1013A0000115110561F0C0918F01809190018C179A
:1013B00031F04BD790E0F8010995C093900110925D
:1013C0002801B898B29B1AC0B09BFCCF88EA8DB9AF
:1013D00080EF8EB9FF91EF91CF91BF91AF919F9127
:1013E0008F917F916F915F914F913F912F911F91BD
:1013F0000F910F900FBE0F901F90189588EFE7CFB9
:101400001F920F920FB60F9211242F933F934F9379
:101410005F936F937F938F939F93AF93BF93EF935C
:10142000FF9315BC1EBC80916501882331F180912A
:1014300065018330A9F460E082E041DA61E082E096
:101440008ADA60E08BE03BDA61E08BE084DA81E00D
:1014500080936101809165018150809365010DC089
:10146000809165018130B1F760E082E074DA10921A
:10147000650110925C0110925B018091B501882397
:1014800031F18091B5018330A9F460E08EE017DA84
:1014900061E08EE060DA60E08DE011DA61E08DE01D
:1014A0005ADA81E08093B1018091B5018150809337
:1014B000B5010DC08091B5018130B1F760E08EE0DB
:1014C0004ADA1092B5011092AC011092AB01FF9173
:1014D000EF91BF91AF919F918F917F916F915F91AC
:1014E0004F913F912F910F900FBE0F901F90189525
:1014F00093E093BF789489B7826089BF90BF81E001
:1015000087BD86BD87E08FBD87E886B9F89410BE99
:1015100017BC16BC15BC1EBC19BC1CBC85E48FBD19
:1015200084E68DBD89B7806489BF78941092930159
:1015300010929401109295011092900110928F01D7
:10154000109291011092920182E4809332011092E4
:101550003601109235011092340110923301C29A73
:10156000C09ABA9AB89888EA8DB980EF8EB98AE79E
:1015700097E0909334018093330189E193E0909355
:101580003601809335018CE496E090938C01809332
:101590008B0190938E0180938D0188E796E0909364
:1015A000840180938301909386018093850185E96E
:1015B00094E090937C0180937B0160E083E0CBD941
:1015C00061E085E0C8D961E085E079D961E086E035
:1015D000C2D961E086E0BFD960E086E070D9FDD96C
:1015E00061E081E0B8D961E081E069D98FB7F89412
:1015F00027E135E030933A01209339018FBF85B759
:101600008C7F826085BF8BB780688BBF8FB7F89463
:1016100021EA36E030933801209337018FBF85B738
:101620008C7F826085BF8BB780648BBF8CEF982ED8
:1016300094E0F92EC1E023EFA22E38E2832E42E09F
:10164000B42E53E0E52E0FEF10E0CC24CA9463E0F3
:10165000D62E87E891E0EDD88FE791E0EAD887E7CA
:1016600091E0E7D8E0913E01EE2309F444C0809177
:101670007601811140C010923E0110923D01D0923E
:101680006300C09262002ADB1092B6019091430180
:10169000809142018F5F80934201D091760199231E
:1016A00009F4B3C1D111B1C11092430110924101AB
:1016B000109365000093640080916B01882319F0FA
:1016C00017DB10926B0180916C01882319F02DD9E2
:1016D00010926C018091440190914501009729F08E
:1016E000019790934501809344016AE070E080E0A7
:1016F00090E081D5AECF80913D01882361F180914A
:10170000620090916300009709F5D0913C0110921E
:101710003D018091B601813009F4B8CFE13108F084
:101720006FC1F0E0EB56F44F099417C028C042C0D7
:101730006AC16AC086C064C163C1A7C0BBC0DBC048
:10174000F6C011C185C04DC157C12DC001979093FE
:10175000630080936200DE2FDCCF809176018823C6
:1017600011F19092610010923B01C0933D011093E2
:10177000630000936200F0923C01D1E014C09091AC
:10178000980180919901981771F086E991E02BD723
:101790008A3A61F4C0933D011093630000936200A4
:1017A000F0923C01D2E0D0933E0170CF8C3FD9F74C
:1017B000DFEFF9CF9091980180919901981799F3F3
:1017C00086E991E010D7882321F09DEF980F9230A1
:1017D00050F78093610080916000D8E081110BC0C8
:1017E000C093B601A092B2018092B301B092B4014D
:1017F000E092B501DDE0C0933D01109363000093DA
:101800006200F0923C01CFCF9092610010923B01B8
:101810001092990110929801C093B6018FEF8093B6
:10182000B2011092B301C093B401E092B501C0932C
:101830003D01109363000093620080933C01D5E06A
:10184000B2CF8A3F09F0B4CF86E991E0CCD68DCFF4
:1018500010929901109298018A3F11F0D3E0A3CF22
:10186000C093B60184EF8093B2011092B301C0938C
:10187000B401E092B501C0933D0110936300009361
:101880006200F0923C01DEE08ECFC093B601A092E0
:10189000B20188EC8093B301B092B401E092B5013B
:1018A000C0933D011093630000936200F0923C01ED
:1018B000D9E079CF10929901109298018A3F71F680
:1018C00080913B01C093B601A092B201882389F0B8
:1018D00088EC8093B301B092B401E092B501C0935B
:1018E0003D011093630000936200F0923C01DAE046
:1018F0005ACF84E6EECF10929901109298018A3F58
:1019000009F0ACCFC093B601A092B20180E58093FC
:10191000B301B092B401E092B501C0933D011093C0
:10192000630000936200F0923C01DBE03CCF109238
:101930009901109298018A3F09F090CFC093B601A7
:1019400082EF8093B2011092B301C093B401E09290
:10195000B501C0933D011093630000936200F092C3
:101960003C01DCE020CF909198018091990198177B
:1019700009F419CF86E991E036D68A3F09F413CFEE
:10198000882329F09DEF980F923008F011CF8093B3
:10199000610080913B01811104C08091600083301F
:1019A000A1F4C093B601A092B2018092B301B092AB
:1019B000B401E092B501C0933D0110936300009320
:1019C0006200F0923C01DDE0EECEC0933B01C0939B
:1019D0003D011093630000936200F0923C01D8E057
:1019E000E2CE10929901109298018A3F09F036CF09
:1019F00010923D01DFE0D7CE10923D01D0E1D3CE71
:101A000090926100D0CED4E0CECE80914101882367
:101A100059F1209164003091650021153105F1F4F0
:101A2000809140011092410120916601953009F4A6
:101A300085C0E0F4913009F450C008F441C09430FE
:101A400009F463C080934301DD2309F435CE83E0BC
:101A5000C6D6892B09F030CEC6D72ECE21503109FB
:101A60003093650020936400892FDECF923109F412
:101A70006BC0B8F4913131F7C09366018DEE80935D
:101A8000620110926301C0936401E0926501C0930A
:101A900041011093650000936400F092400182E1DF
:101AA000D1CF943109F46BC09E3F61F6C0934101E0
:101AB0001093650000936400F09240018FEFC2CF55
:101AC000DD2309F4BFCFC09341011093650000935B
:101AD0006400F092400181E0B5CF213009F4B2CF2B
:101AE000209175012A3A61F4B0923F01909341012F
:101AF0001093650000936400F092400181E1A2CF51
:101B00002C3F09F09FCF8EEF9DCF86E491E068D8FF
:101B1000C09366018FEF8093620110926301C093BE
:101B20006401E0926501C093410110936500009348
:101B300064008EEF8093400185E084CF213009F46A
:101B400081CF2A3F01F7BFCF213009F47BCF2A3F55
:101B5000D1F680913F01C09366018093620110929B
:101B60006301C0936401E0926501C0934101109349
:101B7000650000936400F092400184E163CF21305E
:101B800009F460CF2A3F09F0BECF1092410185E1F0
:101B900059CFCF93DF93E7E8F1E0128211821382ED
:101BA000158214821782168284E0808362E0D3D685
:101BB000EFE7F1E0128211821382158214821782FC
:101BC00016828CE0808362E0C6D6E7E7F1E01282FD
:101BD00011821382158214821782168287E0808315
:101BE00062E0B9D6C6E4D1E08BEE90E099838883B9
:101BF0001A821B821C8A1D8A1E8A1F8A188E198EC1
:101C00001A8E1B8E1E8E1F8E18A2CE01F8D61E8E27
:101C10001F8E1B821A8287EF90E09983888319A216
:101C20001AA21BA21CA21DA21EA288E0E6E6F0E0FA
:101C3000ADE6B1E001900D928A95E1F71FA6E6E9C5
:101C4000F1E08FED90E09183808312821382148AF9
:101C5000158A168A178A108E118E128E138E168E82
:101C6000178E10A2DF91CF9139C8EE0FFF1F05909C
:0A1C7000F491E02D0994F894FFCFE1
:101C7A0004FCFF03FF001112145911141F273E0020
:101C8A0000407E0000000000000000003B00000051
:101C9A00000000003F0000000000000041000000BA
:101CAA00000000000000000000000000000000002A
:101CBA00000000000000005F0000000000000000BB
:101CCA00000000000000006C00000000000000009E
:101CDA0000000000000051004F500000004B4C541F
:101CEA000059530000000056007C55000000005EB9
:101CFA0006F3029D00DA0200000000FF04F3029DD1
:101D0A0000DA02000000000F05F302EA027C01007B
:00000001FF
